:020000040800F2
:10000000005000204D010008A9040008AB040008BE
:10001000AD040008AF040008B104000800000000AF
:10002000000000000000000000000000B304000811
:10003000B504000800000000B7040008B904000877
:100040009501000895010008950100089501000838
:100050009501000895010008C704000895010008F3
:100060009501000895010008950100089501000818
:100070009501000895010008950100089501000808
:1000800095010008950100089501000895010008F8
:10009000CD040008950100089501000895010008AD
:1000A00095010008950100089501000895010008D8
:1000B00095010008950100089501000895010008C8
:1000C00095010008950100089501000895010008B8
:1000D00095010008950100089501000895010008A8
:1000E0009501000895010008950100080000000036
:1000F0000000000000000000000000000000000000
:0C01000000000000000000005FF808F1A3
:10010C0010B5054C237833B9044B13B10448AFF345
:10011C0000800123237010BD0C00002000000000A3
:10012C00DC14000808B5034B1BB103490348AFF3BB
:10013C00008008BD0000000010000020DC14000846
:10014C00002103E00B4B5B58435004310A480B4B26
:10015C0042189A42F6D30A4A02E0002342F8043BC2
:10016C00084B9A42F9D300F0B9F901F08DF900F07F
:10017C0001F9704730150008000000200C00002029
:10018C000C0000209C000020FEE7000008B54FF496
:10019C0000324FF0100E0D480D4B026180E8084004
:1001AC004FF48002002342618360C3608361C361AA
:1001BC00036243628362C36200F061FA28B1BDE856
:1001CC0008404521034800F017B908BD280000205D
:1001DC00006400400415000810B502681B4B86B083
:1001EC009A4230D103F5D633DA69002442F000721A
:1001FC00DA61DB6902A903F000730193019B4FF4F0
:10020C008073134802930394049400F0D9FD4FF4C7
:10021C000073029302230393032302A90C48059352
:10022C0000F0CEFD0B4A14205368214623F4C04342
:10023C0043F0E06343F480435360224600F058FDE2
:10024C00142000F089FD06B010BD00BF0064004012
:10025C00000C014000000140264BF0B59A6989B0B2
:10026C0042F010029A619A69234F02F01002009238
:10027C00009A9A69384642F020029A619A694FF4C2
:10028C00005102F020020192019A9A69002442F076
:10029C0004029A619A69012602F004020292029AFF
:1002AC009A69022542F008029A619B69002203F0C8
:1002BC0008030393039B00F063FE4FF4005304A95F
:1002CC003846049305960694079500F079FD0B4B80
:1002DC0004A90B4805930496069500F071FD22467F
:1002EC002146062000F004FD062000F035FD09B083
:1002FC00F0BD00BF001002400010014000001110C2
:10030C00000801404FF4803310B590B001220793E0
:10031C00002102240E934FF4E01306A806920891D4
:10032C000A920D940F9300F03DFE00B1FEE70F23EF
:10033C0001934FF4806303900590214601A8029429
:10034C00049300F0F7FF044600B1FEE701F096F8C5
:10035C004FF47A73B0FBF3F000F00AFD042000F0C8
:10036C001DFD224621464FF0FF3000F0C1FC10B0BD
:10037C0010BD000008B5002400F0FAF8FFF7C2FF2A
:10038C00FFF76AFFFFF702FF44F6A00317490126A7
:10039C0081E818000E23164D4C6128468E61CE6103
:1003AC008C60CC600C614B6200F006F94FF411725A
:1003BC002B6B21461A60DC609C601E61284600F0A5
:1003CC00BBFA96220B4C2E462270642262703222AB
:1003DC00A2701422E2702B6B227801211A756278BC
:1003EC0030465A7500F0D8F9F5E700BF6C000020D4
:1003FC002800002094000020FEE70000254B07B5E4
:10040C009A69032042F001029A619A6902F0010292
:10041C000092009ADA6942F08052DA61DB6903F0EB
:10042C0080530193019B00F051FC00226FF00B00F4
:10043C00114600F05DFC00226FF00A00114600F03E
:10044C0057FC00226FF00900114600F051FC00220D
:10045C006FF00400114600F04BFC00226FF003001B
:10046C00114600F045FC00226FF00100114600F02F
:10047C003FFC00224FF0FF30114600F039FC064AD9
:10048C00536823F0E06343F00073536003B05DF8EE
:10049C0004FB00BF00100240000001407047FEE763
:1004AC00FEE7FEE7FEE770477047704708B500F0BF
:1004BC0071F8BDE8084000F07EBC012000F066BD7C
:1004CC0010B5054C204600F015FB2046BDE8104049
:1004DC00002100F031BA00BF280000200F4B1A6831
:1004EC0042F001021A6059680D4A0A405A601A68B3
:1004FC0022F0847222F480321A601A6822F480226C
:10050C001A605A6822F4FE025A604FF41F029A6075
:10051C004FF00062034B9A60704700BF001002401E
:10052C000000FFF800ED00E038B50E4B05461878DA
:10053C004FF47A73B3FBF0F30B4A1068B0FBF3F093
:10054C0000F016FC044658B90F2D09D8024629466E
:10055C004FF0FF3000F0CCFB044B20461D6038BD43
:10056C00012038BD040000200000002008000020FD
:10057C00074A08B51368032043F01003136000F01A
:10058C00A5FB0020FFF7D0FFFFF738FF002008BDC8
:10059C0000200240034A044B11681B780B44136083
:1005AC00704700BF9800002004000020014B186821
:1005BC00704700BF980000200122036870B5D3F883
:1005CC0000024D6A4C6920F47C5040EA052040F052
:1005DC000100A240C3F80002D043D3F81C520540DE
:1005EC00C3F81C52CD6985BBD3F80C52CE680540BC
:1005FC00C3F80C528D8803EBC40445EA0645C4F8D5
:10060C0040528E680D8845EA0645C4F844528C6900
:10061C006CBBD3F804420440C3F804420C6954BBCD
:10062C00D3F814422040C3F81402096A00200129AF
:10063C0002BFD3F81C120A43C3F81C22D3F80022C1
:10064C0022F00102C3F8002270BD012DDFD1D3F8D6
:10065C000C520E681543C3F80C528D8803EBC4047E
:10066C0045EA0645C4F840528E688D89CBE7D3F82D
:10067C0004421443D0E7D3F814021043D3E770B507
:10068C000446002869D090F83C3003F0FF021BB9F7
:10069C0080F83D20FFF7A0FD022384F83C3023684E
:1006AC001A6822F002021A601A6842F001021A60FB
:1006BC00FFF77CFF06462268556815F001054ED001
:1006CC005368D90746D5A369E169012B0CBF802378
:1006DC0000230129216A0CBF43F0400323F040039F
:1006EC000129616A0CBF43F0200323F02003012988
:1006FC00A16A0CBF43F0100323F010030129E16A37
:10070C000CBF43F0080323F00803012911680CBF48
:10071C0043F0040323F0040321F0FC010B431360AA
:10072C00E168A3680B4321690B4361690B43616862
:10073C0001390B43D361136823F001031360FFF7F6
:10074C0035FF054623685A68D20713D4586810F051
:10075C0001001BD0042384F83C30012070BDFFF74E
:10076C0025FF801B0A28A6D9032084F83D5084F865
:10077C003C0070BDFFF71AFF401B0A28E2D903208A
:10078C00002384F83C0084F83D3070BD01232064C4
:10079C0084F83C3070BD000002682DE9F843936882
:1007AC0004465B010F4606D493681D0103D493687D
:1007BC00D80040F1B18094F83D30012B00F0B280AC
:1007CC00012384F83D3094F83C30DBB2322B66D0F8
:1007DC00622B66D0222B66D1422384F83C3093687E
:1007EC00590162D4936813F0006F14BF01260226DE
:1007FC004FEA061E02EB0E03206BD3F880118568BE
:10080C0001F00101C3F88011D0F80CC0002D4ED1BD
:10081C000568D3F880114CEA45550D43C3F8805157
:10082C00D3F88451016925F00F0501F00F01016126
:10083C00C3F88451D3F8845172442943C3F884110A
:10084C004169DFF8EC80C2F888118169DFF8E49027
:10085C00C2F88C11D3F8802142F00102C3F8802138
:10086C00FFF7A4FE0546314A23689B68002E45D14C
:10087C0032EA030314BF0123002313BB94F83C306A
:10088C00DBB2522B42D0722B42D0422B42D12223CC
:10089C00002084F83C3084F83D00BDE8F8835223F6
:1008AC009BE7722399E7122397E70026A0E741689C
:1008BC00D3F8808145EA0C0545EAC10545EA0805EF
:1008CC00ACE77B1CD0D05FB9032384F83C302368A1
:1008DC0066B1012E0CBF4FF400424FF4000206E04B
:1008EC00FFF764FE401B8742BDD2EDE780229A6081
:1008FC000023032084F83D30BDE8F883012E02D19B
:10090C0039EA0303B6E738EA0303B3E73223BFE758
:10091C006223BDE70123BBE70423012084F83C30AC
:10092C00BDE8F8830220BDE8F88300BF0100000495
:10093C00000001100001000810B5002936D190F814
:10094C003C30222B50D090F83C30422B4CD090F8BD
:10095C003C30622B48D090F83C30722B44D090F84D
:10096C003D30012B40D0012380F83D3090F83C30D5
:10097C00DBB229BB322B2BD0522B2BD0122B0CBF22
:10098C004223222380F83C3000230268036454691C
:10099C0044F40F4444F00104546180F83D30E9B94B
:1009AC005369084643F00A03536110BD0129D6D19F
:1009BC0090F83C30322B17D090F83C30522BC5E7D6
:1009CC00222B05D0422B05D0122B05D15223D9E76F
:1009DC006223D7E77223D5E73223D3E75169184650
:1009EC0041F05001516110BD022010BD704770479D
:1009FC00426B836B70B5002908BF134604680A016B
:100A0C00A518D5F8B06106F004069E60002E50D1F2
:100A1C00D5F8B061760D1E60D5F8B061224406F0B1
:100A2C000206DE60D5F8B461D5F8B45106F00F06B5
:100A3C00C5F30725DD61D2F8B8511E611D75D2F8DA
:100A4C00B85119622D0A5D75D2F8B8512D0C9D75EF
:100A5C00D2F8B8512D0EDD75D2F8BC511D76D2F8F6
:100A6C00BC512D0A5D76D2F8BC512D0C9D76D2F876
:100A7C00BC21120EDA76202301BBE360636923F0FC
:100A8C000A03636190F83C3003F0EF03222B01BFA3
:100A9C000268536923F40F43536190F83C30DBB286
:100AAC00D1B9622B0FD0722B14D0422B1ED1122332
:100ABC000AE0D5F8B061F6085E60ADE723616369C2
:100ACC0023F05003DDE7322380F83C30FFF78FFF33
:100ADC00002070BD5223F7E7622B03D0722B03D09A
:100AEC00522BE3E72223EFE74223EDE70123EBE769
:100AFC0070470000036870B5DD68044615F01005FA
:100B0C005A6906D012F008051EBF10224FF400756A
:100B1C00DA6019695A69C90605D5520642BF102216
:100B2C0045F480651A615A69D60735D59E68634AC3
:100B3C009868B243996805D0614A824302D0614AF1
:100B4C008A4329D19868996880079A6804D48905E2
:100B5C0002D4D60740F190805A6922F001025A6102
:100B6C0094F83C20122A02BF5A6922F40F425A61AF
:100B7C0094F83C30DBB2522B78D0722B78D0422BCD
:100B8C0078D1222384F83C302046FFF72FFF2268CF
:100B9C004D4B91680B4393602368DA685B6990074F
:100BAC0005D0990703D500212046FFF721FF2368C4
:100BBC001A695B69920705D0DE0603D50121204630
:100BCC00FFF716FF236C1D43236825649869596948
:100BDC00C0075A6907D5CE0505D5150442BF226C4E
:100BEC0042F0010222649869596980075A6907D555
:100BFC00890505D5120442BF226C42F00202226420
:100C0C009869596946075A6907D54D0505D51004E9
:100C1C0042BF226C42F0040222649869596910F0B8
:100C2C00700F5A6911D009050FD512040DD59A69A8
:100C3C0002F07002302A35D021D8102A29D0202A6F
:100C4C002CD09A6922F070029A61226C6AB104224B
:100C5C005A60012284F83C205A69204622F40F4243
:100C6C0022F05B025A61FFF743FF70BD322389E724
:100C7C00622387E7012385E745F4006587E7502A5F
:100C8C0014D0602A16D0402ADBD1226C42F04002EC
:100C9C0002E0226C42F008022264D2E7226C42F09D
:100CAC001002F9E7226C42F02002F5E7226C42F0C8
:100CBC008002F1E7226C42F48072EDE7010000043F
:100CCC00000100080000011009050100074A00029C
:100CDC00D36800F4E06023F4E0631B041B0C43F0C6
:100CEC00BF6343F400330343D360704700ED00E06F
:100CFC00174B30B5DC68C4F30224C4F10703251D7F
:100D0C00042B28BF0423062D4FF0010598BF0024A7
:100D1C0005FA03F303F1FF3388BF033C1940A140EC
:100D2C0005FA04F4013C2240002842EA01024FEA91
:100D3C000212AFBF00F16040064B00F00F00D2B2C0
:100D4C00A5BFD2B200F561401A5480F8002330BD23
:100D5C0000ED00E014ED00E00123420900F01F005B
:100D6C0003FA00F0014B43F82200704700E100E069
:100D7C000138B0F1807F0AD2F021064B064A586048
:100D8C0082F823100020072298601A607047012017
:100D9C00704700BF10E000E000ED00E0044B0428B9
:100DAC001A680CBF42F0040222F004021A60704769
:100DBC0010E000E0704708B5FFF7FCFF08BD00002D
:100DCC002DE9F74F00221646654BDFF8A4E1DFF85A
:100DDC00A4C14FF001080C6808FA06F808EA0404EC
:100DEC00A0457FD14D68122D00F0AF8000F28880B5
:100DFC00022D00F0A7807CD8002D00F08E80012DF4
:100E0C0000F09E804FF00F09FF2C93BF824606F135
:100E1C008045083DD0F800B092BFB500D0F804B0C2
:100E2C00AD0009FA05F82BEA080802FA05F588BFA7
:100E3C0000F1040A48EA0505CAF80050D1F804A0EC
:100E4C001AF0805F4ED0474D464FAD6926F003082F
:100E5C0045F00105BD61BD6908F1804805F001054B
:100E6C00019508F5803806F0030B019D4FEA8B0BBA
:100E7C00D8F8085009FA0BF925EA09093A4DA842A5
:100E8C0068D005F58065A84266D005F58065A84256
:100E9C0064D005F58065A8420CBF0325042505FA2E
:100EAC000BF545EA0905C8F808501D681AF4803F8F
:100EBC0014BF2543A5431D605D681AF4003F14BFA1
:100ECC002543A5435D609D681AF4801F14BF25431C
:100EDC00A5439D60DD681AF4001F14BF2C4325EA5E
:100EEC000404DC600136102E7FF473AF03B0BDE850
:100EFC00F08F032D22D0112D84D1CA68043281E7E2
:100F0C001A4FBD4209D012D8DFF86C904D4504D071
:100F1C0009F580394D457FF475AF8A68C2B1012A55
:100F2C000CBFC0F81080C0F8148008226AE7754521
:100F3C00F3D06545F1D0DFF84490EBE7002261E790
:100F4C00CA685FE7CA6808325CE7CA680C3259E7BE
:100F5C00042257E70025A2E70125A0E702259EE71A
:100F6C000004014000100240000801400000211064
:100F7C00000031100000321000001110000022108F
:100F8C000AB1016170470904FBE7704708B5044BCF
:100F9C005969014202D05861FFF7F7FF08BD00BF45
:100FAC000004014003682DE9F341DB07054610D42A
:100FBC002B689F075ED42B68190700F195802B686E
:100FCC005A0700F1BF80EA69002A40F02D81002009
:100FDC0014E0904C636803F00C03042B07D0636897
:100FEC0003F00C03082B0CD16368DE0309D52368CE
:100FFC009C03DDD56B68002BDAD1012002B0BDE873
:10100C00F0816B68B3F5803F10D1236843F48033D3
:10101C002360FFF7CBFA064623689803C8D4FFF782
:10102C00C5FA801B6428F7D90320E7E79BB923682E
:10103C0023F480332360236823F480232360FFF799
:10104C00B5FA064623689903B2D5FFF7AFFA801BB1
:10105C006428F7D9E8E7B3F5A02F236803D143F44C
:10106C0080232360D1E723F480332360236823F4A7
:10107C008023CDE7674C636813F00C0F07D06368CF
:10108C0003F00C03082B10D16368DA030DD423682A
:10109C009B0702D52B69012BAFD123686A6923F01A
:1010AC00F80343EAC203236085E72A695A4B6AB105
:1010BC0001221A60FFF77AFA064623689F07ECD4E0
:1010CC00FFF774FA801B0228F7D9ADE71A60FFF717
:1010DC006DFA0646236898077FF56DAFFFF766FA41
:1010EC00801B0228F6D99FE7AA694A4C4B4BDAB110
:1010FC0001221A60FFF75AFA0646636A9B070DD560
:10110C004FF4FA52464B1B68B3FBF2F3019300BF4A
:10111C00019B5A1E0192002BF9D150E7FFF746FABA
:10112C00801B0228E9D97FE71A60FFF73FFA0646D1
:10113C00636A9F077FF543AFFFF738FA801B0228DD
:10114C00F6D971E7334CE369D80024D40127E3695D
:10115C0043F08053E361E36903F080530093009BF9
:10116C00304E3368D90518D5EB68012B26D1236A8C
:10117C0043F001032362FFF719FA41F288368046E7
:10118C00236A9B073FD5002F3FF41DAFE36923F083
:10119C008053E36117E70027E2E7336843F4807379
:1011AC003360FFF703FA80463368DA05DCD4FFF7C7
:1011BC00FDF9A0EB08006428F6D935E7ABB9236A32
:1011CC0041F2883823F001032362236A23F00403DD
:1011DC002362FFF7EBF90646236A9807D3D5FFF78E
:1011EC00E5F9801B4045F7D91EE7052B236A03D18F
:1011FC0043F004032362BAE723F001032362236A5A
:10120C0023F00403B6E7FFF7D1F9A0EB0800B042D6
:10121C00B6D909E700100240000042428004424265
:10122C000000002000700040224C636803F00C03A7
:10123C00082B3FF4E2AE00231F4E022A33602BD161
:10124C00FFF7B4F90746236899011FD42B6AB3F54D
:10125C00803F05D16268A96822F400320A436260BB
:10126C00696A62680B4322F47412134363600123AE
:10127C003360FFF79BF9054623689A013FF5A7AE4B
:10128C00FFF794F9401B0228F6D9CDE6FFF78EF94B
:10129C00C01B0228D7D9C7E6FFF788F90546236893
:1012AC009B017FF594AEFFF781F9401B0228F6D91C
:1012BC00BAE600BF001002406000424230B5194B44
:1012CC0087B002AC03F11005224618685968083340
:1012DC0003C2AB421446F7D101238DF8043002232C
:1012EC0011498DF805304B6803F00C02082A17D110
:1012FC00C3F3834206A80244DB0312F8102C0CD56E
:10130C004B680A48C3F34043504306AA134413F8EE
:10131C00143CB0FBF3F007B030BD05485043FAE77E
:10132C000248F8E7F41400080010024000127A009A
:10133C0000093D004D4A2DE9F0411368054603F0C4
:10134C0007038B420E4628D32A68910732D4D20762
:10135C0038D4464A136803F007039E4273D32A68B5
:10136C00434C12F0040F79D1130706D563682A6930
:10137C0023F4605343EAC2036360FFF79FFF636883
:10138C003C4AC3F30313D35CD8403B4B186000209A
:10139C00FFF7CAF80020BDE8F081136823F00703BB
:1013AC000B431360136803F007039942CCD0012060
:1013BC00BDE8F0812E49A8684B6823F0F003034385
:1013CC004B60C4E76A682A4C012A23681CD113F4C9
:1013DC00003FECD0636841F2883823F003031343D9
:1013EC006360FFF7E3F86B680746012B14D1636861
:1013FC0003F00C03042BACD0FFF7D8F8C01B40450E
:10140C00F5D90320BDE8F081022A02D113F0007F48
:10141C00DFE713F0020FDCE7022B0FD1636803F058
:10142C000C03082B95D0FFF7C1F8C01B4045F5D92C
:10143C00E7E7FFF7BBF8C01B4045E2D8636813F041
:10144C000C0FF6D185E7136823F0070333431360C1
:10145C00136803F007039E42A9D180E76368E9682B
:10146C0023F4E0630B4363607EE700BF002002407F
:10147C00001002401715000800000020014B1868EE
:10148C00704700BF0000002070B500250C4E0D4CBD
:10149C00A41BA410A54209D100F01AF800250A4E8D
:1014AC000A4CA41BA410A54205D170BD56F82530DA
:1014BC0098470135EEE756F8253098470135F2E7A5
:1014CC002815000828150008281500082C150008F8
:1014DC00F8B500BFF8BC08BC9E467047F8B500BF15
:0814EC00F8BC08BC9E467047E5
:1014F40002030405060708090A0B0C0D0E0F101051
:101504002E2E5C2E2E5C2E2E5C5372635C63616EF9
:101514002E63000000000000000000010203040626
:0415240007080900AB
:041528003101000885
:04152C000D010008A5
:0C15300000A24A040100000010000000AE
:040000050800014DA1
:00000001FF
