:020000040800F2
:1000000000500020A92C0008152A0008172A000813
:10001000192A00081B2A00081D2A000800000000F9
:100020000000000000000000000000001F2A00087F
:10003000212A000800000000232A0008252A0008C1
:10004000F12C0008F12C0008F12C0008F12C00081C
:10005000F12C0008F12C0008F12C0008F12C00080C
:10006000F12C0008F12C0008F12C0008352A0008BA
:10007000F12C0008F12C0008F12C0008F12C0008EC
:10008000F12C0008F12C0008F12C0008F12C0008DC
:10009000F12C0008F12C0008F12C0008F12C0008CC
:1000A000552A0008512A00084D2A0008412A000854
:1000B000F12C0008592A0008F12C0008F12C000846
:1000C000F12C0008F12C0008F12C0008F12C00089C
:1000D000F12C0008F12C0008F12C0008F12C00088C
:1000E000F12C0008F12C0008F12C000800000000A1
:1000F0000000000000000000000000000000000000
:0C01000000000000000000005FF808F1A3
:1001100010B5054C237833B9044B13B10448AFF341
:1001200000800123237010BD10000020000000009B
:100130003C2D000808B5034B1BB103490348AFF33E
:10014000008008BD00000000140000203C2D0008C5
:1001500081F0004102E000BF83F0004330B54FEA78
:1001600041044FEA430594EA050F08BF90EA020FE5
:100170001FBF54EA000C55EA020C7FEA645C7FEA78
:10018000655C00F0E2804FEA5454D4EB5555B8BF9B
:100190006D420CDD2C4480EA020281EA030382EA0C
:1001A000000083EA010180EA020281EA0303362D9E
:1001B00088BF30BD11F0004F4FEA01314FF4801C71
:1001C0004CEA113102D0404261EB410113F0004F83
:1001D0004FEA03334CEA133302D0524263EB43033A
:1001E00094EA050F00F0A780A4F10104D5F1200ED8
:1001F0000DDB02FA0EFC22FA05F2801841F1000133
:1002000003FA0EF2801843FA05F359410EE0A5F106
:1002100020050EF1200E012A03FA0EFC28BF4CF037
:10022000020C43FA05F3C01851EBE37101F00045ED
:1002300007D54FF0000EDCF1000C7EEB00006EEBFA
:100240000101B1F5801F1BD3B1F5001F0CD3490884
:100250005FEA30004FEA3C0C04F101044FEA4452DB
:1002600012F5800F80F09A80BCF1004F08BF5FEA62
:10027000500C50F1000041EB045141EA050130BD42
:100280005FEA4C0C404141EB010111F4801FA4F1E5
:100290000104E9D191F0000F04BF01460020B1FA3A
:1002A00081F308BF2033A3F10B03B3F120020CDA72
:1002B0000C3208DD02F1140CC2F10C0201FA0CF050
:1002C00021FA02F10CE002F11402D8BFC2F1200CB5
:1002D00001FA02F120FA0CFCDCBF41EA0C0190406B
:1002E000E41AA2BF01EB0451294330BD6FEA0404B4
:1002F0001F3C1CDA0C340EDC04F11404C4F120029F
:1003000020FA04F001FA02F340EA030021FA04F3B0
:1003100045EA030130BDC4F10C04C4F1200220FA07
:1003200002F001FA04F340EA0300294630BD21FA45
:1003300004F0294630BD94F0000F83F4801306BF0B
:1003400081F480110134013D4EE77FEA645C18BFFF
:100350007FEA655C29D094EA050F08BF90EA020F96
:1003600005D054EA000C04BF1946104630BD91EA8E
:10037000030F1EBF0021002030BD5FEA545C05D191
:100380004000494128BF41F0004130BD14F58004D0
:100390003CBF01F5801130BD01F0004545F0FE4144
:1003A00041F470014FF0000030BD7FEA645C1ABF79
:1003B000194610467FEA655C1CBF0B46024650EAB0
:1003C000013406BF52EA033591EA030F41F40021DC
:1003D00030BD00BF90F0000F04BF0021704730B562
:1003E0004FF4806404F132044FF000054FF0000137
:1003F00050E700BF90F0000F04BF0021704730B5F8
:100400004FF4806404F1320410F0004548BF4042CC
:100410004FF000013EE700BF42004FEAE2014FEA21
:1004200031014FEA02701FBF12F07F4393F07F4FFC
:1004300081F06051704792F0000F14BF93F07F4F2E
:10044000704730B54FF4607401F0004521F0004171
:1004500020E700BF50EA010208BF704730B54FF0F7
:1004600000050AE050EA010208BF704730B511F0FC
:10047000004502D5404261EB41014FF4806404F134
:1004800032045FEA915C3FF4DCAE4FF003025FEAB6
:10049000DC0C18BF03325FEADC0C18BF033202EB3E
:1004A000DC02C2F1200300FA03FC20FA02F001FA98
:1004B00003FE40EA0E0021FA02F11444C1E600BF37
:1004C00070B54FF0FF0C4CF4E06C1CEA11541DBFEA
:1004D0001CEA135594EA0C0F95EA0C0F00F0DEF8B5
:1004E0002C4481EA030621EA4C5123EA4C5350EA9A
:1004F000013518BF52EA033541F4801143F48013EB
:1005000038D0A0FB02CE4FF00005E1FB02E506F07B
:100510000042E0FB03E54FF00006E1FB03569CF0D0
:10052000000F18BF4EF0010EA4F1FF04B6F5007FD6
:1005300064F5407404D25FEA4E0E6D4146EB060648
:1005400042EAC62141EA55514FEAC52040EA5E50D1
:100550004FEACE2EB4F1FD0C88BFBCF5E06F1ED87B
:10056000BEF1004F08BF5FEA500E50F1000041EBB2
:10057000045170BD06F0004646EA010140EA02005F
:1005800081EA0301B4EB5C04C2BFD4EB0C0541EA81
:10059000045170BD41F480114FF0000E013C00F396
:1005A000AB8014F1360FDEBF002001F0004170BDBA
:1005B000C4F10004203C35DA0C341BDC04F11404D3
:1005C000C4F1200500FA05F320FA04F001FA05F25F
:1005D00040EA020001F0004221F0004110EBD3702C
:1005E00021FA04F642EB06015EEA430E08BF20EA58
:1005F000D37070BDC4F10C04C4F1200500FA04F3FB
:1006000020FA05F001FA04F240EA020001F000418C
:1006100010EBD37041F100015EEA430E08BF20EAFF
:10062000D37070BDC4F1200500FA05F24EEA020E47
:1006300020FA04F301FA05F243EA020321FA04F076
:1006400001F0004121FA04F220EA020000EBD3702D
:100650005EEA430E08BF20EAD37070BD94F0000F2D
:100660000FD101F00046400041EB010111F4801F61
:1006700008BF013CF7D041EA060195F0000F18BF12
:10068000704703F00046520043EB030313F4801F4E
:1006900008BF013DF7D043EA0603704794EA0C0F08
:1006A0000CEA135518BF95EA0C0F0CD050EA41061E
:1006B00018BF52EA4306D1D181EA030101F000419B
:1006C0004FF0000070BD50EA410606BF10461946C3
:1006D00052EA430619D094EA0C0F02D150EA0136CF
:1006E00013D195EA0C0F05D152EA03361CBF104610
:1006F00019460AD181EA030101F0004141F0FE41AF
:1007000041F470014FF0000070BD41F0FE4141F432
:10071000780170BD70B54FF0FF0C4CF4E06C1CEA32
:1007200011541DBF1CEA135594EA0C0F95EA0C0FE7
:1007300000F0A7F8A4EB050481EA030E52EA0335A2
:100740004FEA013100F088804FEA03334FF08055C3
:1007500045EA131343EA12634FEA022245EA1115F0
:1007600045EA10654FEA00260EF000419D4208BFA1
:10077000964244F1FD0404F5407402D25B084FEA4E
:100780003202B61A65EB03055B084FEA32024FF4FA
:1007900080104FF4002CB6EB020E75EB030E22BF57
:1007A000B61A754640EA0C005B084FEA3202B6EB17
:1007B000020E75EB030E22BFB61A754640EA5C00C6
:1007C0005B084FEA3202B6EB020E75EB030E22BF56
:1007D000B61A754640EA9C005B084FEA3202B6EB57
:1007E000020E75EB030E22BFB61A754640EADC0016
:1007F00055EA060E18D04FEA051545EA16754FEA78
:1008000006164FEAC30343EA52734FEAC2025FEA95
:100810001C1CC0D111F4801F0BD141EA00014FF024
:1008200000004FF0004CB6E711F4801F04BF0143F5
:100830000020B4F1FD0C88BFBCF5E06F3FF6AFAE11
:10084000B5EB030C04BFB6EB020C5FEA500C50F1A1
:10085000000041EB045170BD0EF0004E4EEA113124
:1008600014EB5C04C2BFD4EB0C0541EA045170BD2B
:1008700041F480114FF0000E013C90E645EA060E6F
:100880008DE60CEA135594EA0C0F08BF95EA0C0F9D
:100890003FF43BAF94EA0C0F0AD150EA01347FF4E5
:1008A00034AF95EA0C0F7FF425AF104619462CE7BC
:1008B00095EA0C0F06D152EA03353FF4FDAE10461F
:1008C000194622E750EA410618BF52EA43067FF470
:1008D000C5AE50EA41047FF40DAF52EA43057FF400
:1008E000EBAE12E74FEA4102B2F1E04324BFB3F5A9
:1008F000001CDCF1FE5C0DD901F0004C4FEAC00297
:100900004CEA5070B2F1004F40EB830008BF20F07A
:100910000100704711F0804F21D113F13872BCBF34
:1009200001F00040704741F480114FEA5252C2F189
:100930001802C2F1200C10FA0CF320FA02F018BFD2
:1009400040F001004FEAC1234FEAD32303FA0CFC25
:1009500040EA0C0023FA02F34FEA4303CCE77FEAB4
:10096000625307D150EA01331EBF4FF0FE4040F4FE
:100970004000704701F0004040F0FE4040F40000AD
:10098000704700BF80F0004002E000BF81F00041EE
:1009900042001FBF5FEA410392EA030F7FEA226C25
:1009A0007FEA236C6AD04FEA1262D2EB1363C1BFB5
:1009B000D218414048404140B8BF5B42192B88BF24
:1009C000704710F0004F40F4000020F07F4018BF47
:1009D000404211F0004F41F4000121F07F4118BF67
:1009E000494292EA030F3FD0A2F1010241FA03FC0F
:1009F00010EB0C00C3F1200301FA03F100F00043F7
:100A000002D5494260EB4000B0F5000F13D3B0F1BE
:100A1000807F06D340084FEA310102F10102FE2A2D
:100A200051D2B1F1004F40EBC25008BF20F001009D
:100A300040EA03007047490040EB000010F4000F4B
:100A4000A2F10102EDD1B0FA80FCACF1080CB2EBDE
:100A50000C0200FA0CF0AABF00EBC250524218433D
:100A6000BCBFD0401843704792F0000F81F40001E2
:100A700006BF80F400000132013BB5E74FEA4103B5
:100A80007FEA226C18BF7FEA236C21D092EA030F21
:100A900004D092F0000F08BF0846704790EA010F9B
:100AA0001CBF0020704712F07F4F04D1400028BFC8
:100AB00040F00040704712F100723CBF00F50000AA
:100AC000704700F0004343F0FE4040F400007047E0
:100AD0007FEA226216BF08467FEA2363014642028C
:100AE00006BF5FEA412390EA010F40F4800070479F
:100AF0004FF0000304E000BF10F0004348BF404245
:100B00005FEA000C08BF704743F0964301464FF080
:100B100000001CE050EA010208BF70474FF00003DC
:100B20000AE000BF50EA010208BF704711F000431D
:100B300002D5404261EB41015FEA010C02BF8446ED
:100B40000146002043F0B64308BFA3F18053A3F54C
:100B50000003BCFA8CF2083AA3EBC25310DB01FA93
:100B600002FC634400FA02FCC2F12002BCF1004F17
:100B700020FA02F243EB020008BF20F001007047A8
:100B800002F1200201FA02FCC2F1200250EA4C00FC
:100B900021FA02F243EB020008BF20EADC70704742
:100BA0004FF0FF0C1CEAD0521EBF1CEAD15392EA50
:100BB0000C0F93EA0C0F6FD01A4480EA010C40022C
:100BC00018BF5FEA41211ED04FF0006343EA501086
:100BD00043EA5111A0FB01310CF00040B1F5000FC8
:100BE0003EBF490041EAD3715B0040EA010062F177
:100BF0007F02FD2A1DD8B3F1004F40EBC25008BF61
:100C000020F00100704790F0000F0CF0004C08BF7E
:100C100049024CEA502040EA51207F3AC2BFD2F14B
:100C2000FF0340EAC250704740F400004FF0000359
:100C3000013A5DDC12F1190FDCBF00F00040704793
:100C4000C2F10002410021FA02F1C2F1200200FAD1
:100C500002FC5FEA310040F1000053EA4C0308BF98
:100C600020EADC70704792F0000F00F0004C02BFE9
:100C7000400010F4000F013AF9D040EA0C0093F064
:100C8000000F01F0004C02BF490011F4000F013BBE
:100C9000F9D041EA0C018FE70CEAD15392EA0C0F2C
:100CA00018BF93EA0C0F0AD030F0004C18BF31F097
:100CB000004CD8D180EA010000F00040704790F06D
:100CC000000F17BF90F0004F084691F0000F91F011
:100CD000004F14D092EA0C0F01D142020FD193EAD7
:100CE0000C0F03D14B0218BF084608D180EA01005F
:100CF00000F0004040F0FE4040F40000704740F03B
:100D0000FE4040F4400070474FF0FF0C1CEAD05208
:100D10001EBF1CEAD15392EA0C0F93EA0C0F69D064
:100D2000A2EB030280EA010C49024FEA402037D0CF
:100D30004FF0805343EA111143EA10130CF00040C6
:100D40008B4238BF5B0042F17D024FF4000C8B42B6
:100D500024BF5B1A40EA0C00B3EB510F24BFA3EB96
:100D6000510340EA5C00B3EB910F24BFA3EB910366
:100D700040EA9C00B3EBD10F24BFA3EBD10340EAC0
:100D8000DC001B0118BF5FEA1C1CE0D1FD2A3FF606
:100D900050AF8B4240EBC25008BF20F001007047BB
:100DA0000CF0004C4CEA50207F32C2BFD2F1FF035E
:100DB00040EAC250704740F400004FF00003013A8F
:100DC00037E792F0000F00F0004C02BF400010F433
:100DD000000F013AF9D040EA0C0093F0000F01F047
:100DE000004C02BF490011F4000F013BF9D041EA69
:100DF0000C0195E70CEAD15392EA0C0F08D142029C
:100E00007FF47DAF93EA0C0F7FF470AF084676E76E
:100E100093EA0C0F04D14B023FF44CAF08466EE747
:100E200030F0004C18BF31F0004CCAD130F0004215
:100E30007FF45CAF31F000437FF43CAF5FE700BF6D
:100E400042000ED2B2F1FE4F0BD34FF09E03B3EB34
:100E5000126209D44FEA002343F0004323FA02F060
:100E600070474FF00000704712F1610F01D142024C
:100E700002D14FF0FF3070474FF00000704700BFC5
:100E800038B50E4B054618784FF47A73B3FBF0F380
:100E90000B4A1068B0FBF3F000F0B4FA044658B9FE
:100EA0000F2D09D8024629464FF0FF3000F06AFAAC
:100EB000044B20461D6038BD012038BD00000020D5
:100EC0000C00002004000020074A08B51368032026
:100ED00043F01003136000F043FA0020FFF7D0FF47
:100EE00001F048FD002008BD00200240034A044BE9
:100EF00011681B780B441360704700BF5C00002032
:100F000000000020014B1868704700BF5C00002003
:100F10007047436A10B59A6A12F0500F1BD19A6A53
:100F200042F400729A621A68926802F46022B2F582
:100F3000602F0CD1DA6852B99A6A22F480729A62F0
:100F40009A6AD2045EBF9A6A42F001029A62184617
:100F5000FFF7DEFF10BD1B6ABDE810401B6B184792
:100F6000704708B5406AFFF7FBFF08BD7047406A4D
:100F700008B5836A43F040038362C36A43F0040305
:100F8000C362FFF7F3FF08BD002373B5019390F828
:100F90002430012B74D001234D6880F82430062DB5
:100FA00002684FEA85030C6825D82B441F25566B31
:100FB000053B9D4026EA050504FA03F32B435363E2
:100FC000092C4FEA44038D682FD907262344D168A2
:100FD0001E3B9E4021EA060105FA03F30B43D36052
:100FE000A4F11003012B2BD90023002280F8242028
:100FF000184602B070BD0C2D0BD82B441F25166B64
:10100000233B9D4026EA050504FA03F32B431363B3
:10101000D6E72B441F25D66A413B9D4026EA0505AD
:1010200004FA03F32B43D362CAE70726116923446A
:101030009E4021EA060105FA03F30B431361CFE753
:10104000104B9A4216D193681B02CDD49368102C92
:1010500043F400039360C7D10B4B0C4A1B68B3FBEE
:10106000F2F20A2353430193019B002BBCD0019B56
:10107000013BF8E7836A43F0200383620123B4E76E
:101080000223B5E7002401400C00002040420F007D
:10109000002373B50193036804469A68D20702D50A
:1010A000002002B070BD9A6842F001029A60124BB3
:1010B000124A1B68B3FBF2F30193019BC3B9FFF71C
:1010C00021FF064623689D6815F00105E8D1FFF76A
:1010D00019FF801B0228F5D9A36A84F8245043F035
:1010E0001003A362E36A012043F00103E362D8E73F
:1010F000019B013BE0E700BF0C00002040420F00D5
:101100002DE9D8419046404B026804469A420F466A
:1011100002D03E498A4203D15B6813F4702F6ED12E
:1011200094F82430012B6CD00123204684F824301D
:10113000FFF7AEFF064600285DD1A06A216820F4C3
:101140007060324B20F0010040F480709942A06240
:1011500004D12D4A536813F4702F3ED1A36A23F4AF
:101160008013A3624B685A0505D5A36A23F4405344
:1011700043F48053A362A36A206A13F4805318BF18
:10118000E36A3A4618BF23F00603E362002384F8BB
:1011900024301F4B4C3183621E4BC3621E4B0363D2
:1011A0006FF0020341F84C3C51F8443C43F4807327
:1011B00041F8443C434600F081F923689A6802F400
:1011C0006022B2F5602F9A680CBF42F4A00242F48C
:1011D00080129A603046BDE8D881A36A43F4801338
:1011E000A36253685B0541BFA06A20F4405040F4FD
:1011F0008050A062BFE7002384F82430EAE701268C
:10120000E8E70226E6E700BF00240140002801408D
:10121000130F0008630F00086F0F000838B503684C
:1012200004469A68D20701D4002038BD9A6822F09B
:1012300001029A60FFF766FE054623689B68DB079C
:10124000F2D5FFF75FFE401B0228F6D9A36A012002
:1012500043F01003A362E36A43F00103E36238BD85
:1012600070B50446002871D0836A23B9C36280F840
:10127000243001F0FBF82046FFF7D0FFA36A13F0FB
:10128000100FA36A64D1002862D1E16923F4885366
:10129000626823F0020343F002030A43A168A362D9
:1012A000E368B1F5807F42EA430238D0012914BFD8
:1012B00006464FF480766569012D07D1002B30D1A9
:1012C000A369013B46EA433545F400662368B1F55E
:1012D000807F5D6825F4694545EA06055D609E6886
:1012E0001D4D05EA060545EA02059D6001D001296C
:1012F00020D1216901390905DD6A25F470052943EA
:10130000D9629968154B0B409A4215D10023E362CC
:10131000A36A23F0030343F00103A36270BD0E46EA
:10132000C9E7A36A43F02003A362E36A43F0010321
:10133000E362CBE70021DFE7A36A23F0120343F067
:101340001003A362E36A43F00103E362012070BD6E
:1013500043F01003A362F9E7FDF7E1FFFE0E1FFF64
:10136000074A0002D36800F4E06023F4E0631B0442
:101370001B0C43F0BF6343F400330343D360704757
:1013800000ED00E0174B30B5DC68C4F30224C4F173
:101390000703251D042B28BF0423062D4FF001054C
:1013A00098BF002405FA03F303F1FF3388BF033C21
:1013B0001940A14005FA04F4013C2240002842EA09
:1013C00001024FEA0212AFBF00F16040064B00F08D
:1013D0000F00D2B2A5BFD2B200F561401A5480F816
:1013E000002330BD00ED00E014ED00E001234209D0
:1013F00000F01F0003FA00F0014B43F82200704791
:1014000000E100E00138B0F1807F0AD2F021064B04
:10141000064A586082F823100020072298601A605C
:1014200070470120704700BF10E000E000ED00E0D1
:10143000044B04281A680CBF42F0040222F0040294
:101440001A60704710E000E0704708B5FFF7FCFF36
:1014500008BD000010B550B314220168154B846814
:101460000B44B3FBF2F39B000364134B0A68C363A2
:10147000436822F47F522343C46822F0300223439E
:10148000046923434469234384692343C469234390
:1014900013430B600122002380F821208362C36282
:1014A00003634363836380F82030184610BD012036
:1014B00010BD00BFF8FFFDBF00000240F0B590F87E
:1014C0002040012C35D0012490F8215080F8204094
:1014D000A5424FF000064FF0020428D180F82140C9
:1014E000046886632668076C26F001062660C66BD2
:1014F000BD407560636043680568102BC36A0BBF0D
:10150000A260A160E160E2604BB1236843F00E038A
:1015100023602B68002043F001032B60F0BD23689B
:1015200023F004032360236843F00A03F0E780F804
:1015300020600220F0BD000070B40425C66B026C70
:101540003468036895402542196832D04D0730D57C
:101550001A6896065EBF1A6822F004021A603E4AB4
:10156000934219D01432934218D01432934217D0B8
:101570001432934217D01432934217D0143293424C
:101580000CBF4FF480034FF08063344A5360C36A4A
:10159000002B5ED070BC18470423F6E74023F4E725
:1015A0004FF48063F1E74FF48043EEE74FF480237C
:1015B000EBE702259540254235D08D0733D51A68D3
:1015C000940606D41A6822F00A021A60012280F8F2
:1015D0002120214A934219D01432934218D0143258
:1015E000934217D01432934217D01432934217D03B
:1015F000143293420CBF4FF400134FF00073174A9C
:101600005360002380F82030836AC1E70223F6E7A5
:101610002023F4E74FF40073F1E74FF40053EEE7B3
:101620004FF40033EBE708259540254211D0090718
:101630000FD5196821F00E011960012303FA02F297
:101640007260836380F82130002380F82030036BC0
:101650009EE770BC704700BF0800024000000240D7
:101660002DE9F74F00221646654BDFF8A4E1DFF8BD
:10167000A4C14FF001080C6808FA06F808EA04044F
:10168000A0457FD14D68122D00F0AF8000F2888018
:10169000022D00F0A7807CD8002D00F08E80012D57
:1016A00000F09E804FF00F09FF2C93BF824606F199
:1016B0008045083DD0F800B092BFB500D0F804B026
:1016C000AD0009FA05F82BEA080802FA05F588BF0B
:1016D00000F1040A48EA0505CAF80050D1F804A050
:1016E0001AF0805F4ED0474D464FAD6926F0030893
:1016F00045F00105BD61BD6908F1804805F00105AF
:10170000019508F5803806F0030B019D4FEA8B0B1D
:10171000D8F8085009FA0BF925EA09093A4DA84208
:1017200068D005F58065A84266D005F58065A842B9
:1017300064D005F58065A8420CBF0325042505FA91
:101740000BF545EA0905C8F808501D681AF4803FF2
:1017500014BF2543A5431D605D681AF4003F14BF04
:101760002543A5435D609D681AF4801F14BF25437F
:10177000A5439D60DD681AF4001F14BF2C4325EAC1
:101780000404DC600136102E7FF473AF03B0BDE8B3
:10179000F08F032D22D0112D84D1CA68043281E745
:1017A0001A4FBD4209D012D8DFF86C904D4504D0D5
:1017B00009F580394D457FF475AF8A68C2B1012AB9
:1017C0000CBFC0F81080C0F8148008226AE7754585
:1017D000F3D06545F1D0DFF84490EBE7002261E7F4
:1017E000CA685FE7CA6808325CE7CA680C3259E722
:1017F000042257E70025A2E70125A0E702259EE77E
:1018000000040140001002400008014000002110C7
:1018100000003110000032100000111000002210F2
:101820008368194214BF01200020704703682DE926
:10183000F341DB07054610D42B689F075ED42B6865
:10184000190700F195802B685A0700F1BF80EA69FB
:10185000002A40F02D81002014E0904C636803F0D2
:101860000C03042B07D0636803F00C03082B0CD186
:101870006368DE0309D523689C03DDD56B68002B04
:10188000DAD1012002B0BDE8F0816B68B3F5803F8A
:1018900010D1236843F480332360FFF733FB0646FF
:1018A00023689803C8D4FFF72DFB801B6428F7D961
:1018B0000320E7E79BB9236823F480332360236880
:1018C00023F480232360FFF71DFB0646236899035A
:1018D000B2D5FFF717FB801B6428F7D9E8E7B3F50B
:1018E000A02F236803D143F480232360D1E723F49E
:1018F00080332360236823F48023CDE7674C63683B
:1019000013F00C0F07D0636803F00C03082B10D101
:101910006368DA030DD423689B0702D52B69012B7A
:10192000AFD123686A6923F0F80343EAC203236056
:1019300085E72A695A4B6AB101221A60FFF7E2FA79
:10194000064623689F07ECD4FFF7DCFA801B0228C9
:10195000F7D9ADE71A60FFF7D5FA0646236898076E
:101960007FF56DAFFFF7CEFA801B0228F6D99FE70F
:10197000AA694A4C4B4BDAB101221A60FFF7C2FA4E
:101980000646636A9B070DD54FF4FA52464B1B6817
:10199000B3FBF2F3019300BF019B5A1E0192002B8F
:1019A000F9D150E7FFF7AEFA801B0228E9D97FE7AB
:1019B0001A60FFF7A7FA0646636A9F077FF543AFF1
:1019C000FFF7A0FA801B0228F6D971E7334CE369D0
:1019D000D80024D40127E36943F08053E361E3692D
:1019E00003F080530093009B304E3368D90518D51F
:1019F000EB68012B26D1236A43F001032362FFF732
:101A000081FA41F288368046236A9B073FD5002F32
:101A10003FF41DAFE36923F08053E36117E700272C
:101A2000E2E7336843F480733360FFF76BFA804674
:101A30003368DA05DCD4FFF765FAA0EB0800642808
:101A4000F6D935E7ABB9236A41F2883823F00103B0
:101A50002362236A23F004032362FFF753FA064646
:101A6000236A9807D3D5FFF74DFA801B4045F7D975
:101A70001EE7052B236A03D143F004032362BAE770
:101A800023F001032362236A23F00403B6E7FFF780
:101A900039FAA0EB0800B042B6D909E700100240BD
:101AA00000004242800442420C00002000700040CE
:101AB000224C636803F00C03082B3FF4E2AE0023D2
:101AC0001F4E022A33602BD1FFF71CFA074623680A
:101AD00099011FD42B6AB3F5803F05D16268A968CC
:101AE00022F400320A436260696A62680B4322F49E
:101AF00074121343636001233360FFF703FA054652
:101B000023689A013FF5A7AEFFF7FCF9401B0228B6
:101B1000F6D9CDE6FFF7F6F9C01B0228D7D9C7E6FC
:101B2000FFF7F0F9054623689B017FF594AEFFF7B8
:101B3000E9F9401B0228F6D9BAE600BF00100240BE
:101B40006000424230B5194B87B002AC03F110057A
:101B5000224618685968083303C2AB421446F7D1CD
:101B600001238DF80430022311498DF805304B68AC
:101B700003F00C02082A17D1C3F3834206A80244DB
:101B8000DB0312F8102C0CD54B680A48C3F3404312
:101B9000504306AA134413F8143CB0FBF3F007B00B
:101BA00030BD05485043FAE70248F8E7542D0008D5
:101BB0000010024000127A0000093D004D4A2DE954
:101BC000F0411368054603F007038B420E4628D305
:101BD0002A68910732D4D20738D4464A136803F0F2
:101BE00007039E4273D32A68434C12F0040F79D145
:101BF000130706D563682A6923F4605343EAC203D6
:101C00006360FFF79FFF63683C4AC3F30313D35C31
:101C1000D8403B4B18600020FFF732F90020BDE8A8
:101C2000F081136823F007030B431360136803F07C
:101C300007039942CCD00120BDE8F0812E49A86865
:101C40004B6823F0F00303434B60C4E76A682A4CF7
:101C5000012A23681CD113F4003FECD0636841F2E1
:101C6000883823F0030313436360FFF74BF96B6875
:101C70000746012B14D1636803F00C03042BACD08E
:101C8000FFF740F9C01B4045F5D90320BDE8F081BE
:101C9000022A02D113F0007FDFE713F0020FDCE726
:101CA000022B0FD1636803F00C03082B95D0FFF7CC
:101CB00029F9C01B4045F5D9E7E7FFF723F9C01B19
:101CC0004045E2D8636813F00C0FF6D185E713683E
:101CD00023F0070333431360136803F007039E42A6
:101CE000A9D180E76368E96823F4E0630B4363608C
:101CF0007EE700BF0020024000100240712D000866
:101D00000C000020014B1868704700BF0C00002039
:101D100003682DE9F341D907054620D5354CE36921
:101D2000DA0032D40127E36943F08053E361E369C9
:101D300003F080530193019B2F4E3368DB0526D5BA
:101D4000236A13F4407336D1236A6A6823F440731C
:101D5000134323621FB1E36923F08053E3612868D2
:101D6000830706D5234AA968536823F440430B43ED
:101D7000536010F010001BD01E4AE9685368002021
:101D800023F480030B43536012E00027D4E7336849
:101D900043F480733360FFF7B5F880463368D805A5
:101DA000CED4FFF7AFF8A0EB08006428F6D90320E3
:101DB00002B0BDE8F0816A6802F440729342C3D079
:101DC00001200E4A236A1060002023F44071106045
:101DD0002162D907B8D5FFF795F841F28838064651
:101DE000236A9A07B0D4FFF78DF8801B4045F7D9D6
:101DF000DDE700BF00100240007000404004424296
:101E000003680020DA6842F00102DA601A6842F0E2
:101E100001021A607047704790F83C3070B5012B92
:101E20004FF002031CD0012280F83D30036880F897
:101E30003C209A6822F47F4222F077029A600A6876
:101E4000402A79D019D8102A00F093800AD8002AA5
:101E500000F08980012380F83D30002380F83C3079
:101E6000184670BD202A00F08A80302AF2D19A6884
:101E700022F0700242F0370236E0702A36D01BD8CA
:101E8000502A42D0602AE5D11C6A4D6824F0100423
:101E9000CE681C6299691A6A21F4704122F0A0028E
:101EA00042EA051241EA063199611A629A6822F003
:101EB000700242F0670217E0B2F5805F11D0B2F510
:101EC000005FC7D18A684D689C68C9682A4324F4BA
:101ED0007F4442EA012222439A609A6842F4804297
:101EE00002E09A6822F007029A60B3E78A684D68B8
:101EF0009C68C9682A4324F47F4442EA01222243B1
:101F00009A609A6842F07702EEE74C68CE68196AE8
:101F10001D6A21F00A0125F001051D629A6921431D
:101F200022F0F00242EA06129A6119629A6822F0DF
:101F3000700242F05702D7E74C68CE68196A1D6AF2
:101F400021F00A0125F001051D629A69214322F062
:101F5000F00242EA06129A6119629A6822F070024F
:101F600042F04702C0E79A6822F0700242F007028E
:101F7000BAE79A6822F0700242F01702B4E79A6852
:101F800022F0700242F02702AEE7704770477047B8
:101F9000036810B51A69044691070ED5DA689207EE
:101FA0000BD56FF002021A6101229B6902779B0731
:101FB00077D000F0E5FA0023237723681A695007E9
:101FC00010D5DA6851070DD56FF004021A610222AC
:101FD0009B69227713F4407F204668D000F0D0FA46
:101FE0000023237723681A6912070FD5DA681007D0
:101FF0000CD56FF008021A610422DB692277990779
:1020000020465AD000F0BCFA0023237723681A69CF
:10201000D20610D5DA68D0060DD56FF010021A611D
:102020000822DB69227713F4407F20464BD000F072
:10203000A7FA0023237723681A69D10708D5DA683D
:10204000D20705D56FF0010220461A6100F0C2FAEE
:1020500023681A69100608D5DA68110605D56FF0ED
:10206000800220461A6100F0AEF923681A69520610
:1020700008D5DA68500605D56FF0400220461A618F
:10208000FFF785FF23681A69910622D5DA68920660
:102090001FD56FF020022046BDE810401A6100F005
:1020A00091B9FFF772FF2046FFF770FF83E7FFF754
:1020B0006CFF2046FFF76AFF92E7FFF766FF2046B6
:1020C000FFF764FFA0E7FFF760FF2046FFF75EFF22
:1020D000AFE710BD1A4A036890420AD0B0F1804FB2
:1020E00007D0A2F59432904203D002F5806290426C
:1020F00015D14A6823F070031343114A90420AD065
:10210000B0F1804F07D0A2F59432904203D002F58F
:102110008062904203D1CA6823F4407313434A6932
:1021200023F08003134303608B68C3620B688362F0
:10213000034B984204BF0B6903630123436170475B
:10214000002C014010B50446A0B190F83D3003F0DA
:10215000FF021BB980F83C2000F04EFD02232068EE
:1021600084F83D30211DFFF7B5FF0123002084F8DE
:102170003D3010BD012010BD10B50446A0B190F84F
:102180003D3003F0FF021BB980F83C20FFF743FE0F
:102190000223206884F83D30211DFFF79BFF0123B7
:1021A000002084F83D3010BD012010BD70B5046AD8
:1021B000124E24F001040462B0428469056A0AD018
:1021C000B0F1804F07D0A6F59436B04203D006F5A3
:1021D0008066B0420FD124F0030422431B0122F099
:1021E000F002DBB225F00A0501F00A011A43294387
:1021F0008261016270BD44F00102EFE7002C0140F2
:10220000F8B590F83C300446012B0D464FF0020023
:1022100019D0012384F83D0084F83C30A2B9CB6882
:10222000206806C9FFF7C2FF2368A9689A6922F0EF
:102230000C029A619A690A439A610123002084F88A
:102240003D3084F83C00F8BD042A8E68236882C9BA
:10225000E8681FD11A6A000322F010021A629A6914
:102260001D6A22F4407242EA072280B222F47042D0
:102270000901024301F0A00125F0A00001439A6189
:1022800019629A6922F440629A619A6942EA0626C2
:102290009E61D2E7082A1A6A1CD122F480721A625F
:1022A000DA69000122F003021D6A3A43C0B222F04B
:1022B000F0020902024301F4206125F42060014389
:1022C000DA611962DA6922F00C02DA61DA6916431E
:1022D000DE61B2E722F480521A62DA69000322F466
:1022E00040721D6A42EA072222F4704280B209035A
:1022F000104301F4005125F400521143D8611962D2
:10230000DA6922F44062DA61DA6942EA0626DFE736
:1023100010B50124036A8C4023EA04030362036AB4
:102320008A401A43026210BD10B504460C290DD82C
:10233000DFE801F0070C0C0C170C0C0C1C0C0C0C3F
:1023400021000268D36843F00203D36020680122B1
:10235000FFF7DEFF22680020136843F001031360DB
:1023600010BD0268D36843F00403EEE70268D36847
:1023700043F00803E9E70268D36843F01003E4E799
:1023800090F83C3010B5012B4FF0020318D080F8C4
:102390003D3003680C685A68496822F070025A6040
:1023A0005A6822435A609A6822F080029A609A68BA
:1023B0000A439A60012380F83D30002380F83C30C6
:1023C000184610BD704770472548264B30B503604E
:1023D0004FF4807383604FF400230024C36104230F
:1023E00085B0C460446144600361FEF739FF18B1F1
:1023F00045211D4800F0BCFA012501A918480194A7
:1024000002950394FEF7C0FD18B14F21164800F065
:10241000AFFA022401A9124801950294FEF7B4FD17
:1024200018B15821104800F0A3FA0194032401A91F
:102430000B480294FEF7A8FD18B161210A4800F08C
:1024400097FA042306480DEB030101940293FEF76B
:102450009BFD18B16A21044800F08AFA05B030BD2E
:102460006000002000240140642D000830B502689F
:102470001B4B87B09A4205462FD103F56C439A69EE
:10248000184842F400729A619B6902A903F4007330
:102490000193019B0F2302930323134C0393FFF734
:1024A000DFF8124B2046236000236360A360802383
:1024B000E3604FF4807323614FF4806363612023F2
:1024C000A3614FF48053E361FEF7C4FF18B191217B
:1024D000074800F04DFA2C62656207B030BD00BFBE
:1024E0000024014000080140900000200800024044
:1024F000642D00080A4B07B55A690B2042F001020F
:102500005A6100225B69114603F001030193019BAC
:10251000FEF738FF0B20FEF769FF03B05DF804FB00
:1025200000100240144B00B59A6989B042F02002B5
:102530009A619A6904A902F020020192019A9A69AB
:102540000E4842F004029A619A6902F00402029273
:10255000029A9A6942F008029A619B6903F00803A3
:102560000393039B01230493002305930693FFF732
:1025700077F809B05DF804FB00100240000C014040
:102580000F4B02689A421AD19A699B6991071EBF44
:1025900001210C4A118013F4407F1EBF01220A4B17
:1025A0001A80074BDA69DB6992071EBF0121074ACF
:1025B000118013F4407F1EBF0122054B1A80704723
:1025C000002C0140380000202E0000205000002088
:1025D0004800002038B51D4A0368934204D11C4AC4
:1025E00013880133138038BD1A4A93422DD11A4DF6
:1025F0001A4C2888FEF77CFA4FF06651FEF7D0FAA5
:102600001749FEF7CDFA20606888FEF771FA4FF09F
:102610006651FEF7C5FA1249FEF7C2FA6060A88853
:10262000FEF766FA4FF06651FEF7BAFA0C49FEF76C
:10263000B7FAA060E888FEF75BFA4FF06651FEF744
:10264000AFFA0749FEF7ACFAE06038BD002C014054
:102650005800002000040040E4000020D4000020C6
:1026600000004842094A0A49136810B50C6804FB87
:1026700000301060074A1368013313600A22624376
:102680000A2B0A6000D1FEE710BD00BF4000002009
:1026900008000020440000204FF4803310B594B0AF
:1026A00001220B930021022412934FF4E0130AA895
:1026B0000A920C910E9211941393FFF7B7F800B1A0
:1026C000FEE70F2305934FF480630790099021469E
:1026D00005A806940893FFF771FA00B1FEE74FF4DE
:1026E000004301A801940393FFF712FB044600B1D5
:1026F000FEE7FFF707FB4FF47A73B0FBF3F0FEF74A
:1027000081FE0420FEF794FE224621464FF0FF3062
:10271000FEF738FE14B010BD2DE9F84F0FF2F01B94
:10272000DBE900AB0024FEF7CFFB00217C48FFF77C
:10273000FBFD04217A48FFF7F7FD08217848FFF7F1
:10274000F3FD0C217648FFF7EFFDFFF7A5FFFFF73C
:10275000E9FEFFF7CFFEFFF737FE00F015FA00F0B5
:10276000A7F97048FFF74CFB04226F496F48FEF74A
:10277000C7FC2746264625466D4B1B88632B00F277
:10278000BF80DFF8DC91B9F80080B8F1010F20D1EB
:1027900000253C20624B674A1B6811885B6BB0FBCD
:1027A000F5F05B1A1380FDF715FE52465B46FDF708
:1027B00087FE59A3D3E90023FDF782FE5E4B00227A
:1027C000FDF77EFEFEF78EF8A9F8005045465B4BFC
:1027D0001860DFF89091B9F80080B8F1010F20D1AE
:1027E00000263C204E4B564A1B6811889B6BB0FB61
:1027F000F6F05B1A1380FDF7EDFD52465B46FDF7E0
:102800005FFE45A3D3E90023FDF75AFE4A4B0022A1
:10281000FDF756FEFEF766F8A9F800604646494BFC
:102820001860DFF84491B9F80080B8F1010F20D1A9
:1028300000273C203A4B444A1B681188DB6BB0FBF5
:10284000F7F05B1A1380FDF7C5FD52465B46FDF7B6
:1028500037FE31A3D3E90023FDF732FE364B0022C9
:10286000FDF72EFEFEF73EF8A9F800704746374BFD
:102870001860DFF8F890B9F80080B8F1010F20D1A6
:1028800000243C20264B324A1B6811881B6CB0FB8D
:10289000F4F05B1A1380FDF79DFD52465B46FDF791
:1028A0000FFE1DA3D3E90023FDF70AFE224B0022F1
:1028B000FDF706FEFEF716F8A9F800404446254B42
:1028C000186005EA06033B401C4219D000241D4B4A
:1028D00027461968194B26461868FEF759F81B4B0E
:1028E00025461968FEF754F81A4B1968FEF750F898
:1028F0004FF07A51FEF754F9FEF7A2FA164B188002
:1029000001211648FEF78CFF80B2FFF7ABFE33E7DC
:1029100087F1AD22B6CEBA3F9A9999999999B93F64
:102920002C010020EC000020E400002060000020CA
:10293000580000203A000020000008403C00002021
:1029400030000020340000205200002054000020FD
:102950004A0000204C0000202C000020000C014008
:10296000380000202E0000205000002048000020E9
:10297000FEE70000254B07B59A69032042F00102EB
:102980009A619A6902F001020092009ADA6942F0B3
:102990008052DA61DB6903F080530193019BFEF7FB
:1029A000DFFC00226FF00B001146FEF7EBFC00226B
:1029B0006FF00A001146FEF7E5FC00226FF00900F7
:1029C0001146FEF7DFFC00226FF004001146FEF70F
:1029D000D9FC00226FF003001146FEF7D3FC002261
:1029E0006FF001001146FEF7CDFC00224FF0FF30E2
:1029F0001146FEF7C7FC064A536823F0E06343F034
:102A00000073536003B05DF804FB00BF0010024088
:102A1000000001407047FEE7FEE7FEE7FEE7704773
:102A20007047704708B5FEF761FABDE80840FEF749
:102A30000CBD00000148FEF77FBD00BF90000020E4
:102A40000148FFF7A5BA00BF2C010020FFF7F8BF2F
:102A5000FFF7F6BFFFF7F4BF0148FFF799BA00BFD1
:102A6000EC0000200F4B1A6842F001021A6059680E
:102A70000D4A0A405A601A6822F0847222F48032A9
:102A80001A601A6822F480221A605A6822F4FE0240
:102A90005A604FF41F029A604FF00062034B9A6035
:102AA000704700BF001002400000FFF800ED00E09A
:102AB0003248334B10B54FF6FF72036000238AB0E3
:102AC00043608360C260036143618361FFF73AFB47
:102AD00018B144212B48FFF74BFF4FF480530AA94C
:102AE00041F8203D2548FFF797F918B14A212548BC
:102AF000FFF73EFF2148FFF73FFB18B14F21214868
:102B0000FFF736FF002469461C4800940194FFF744
:102B100037FC18B156211B48FFF72AFF0123079302
:102B20000F23002206A91548069408940993FFF77D
:102B300067FB18B15F211348FFF71AFF042206A9AB
:102B40000E48FFF75DFB18B164210E48FFF710FF38
:102B5000082206A90948FFF753FB18B16921094863
:102B6000FFF706FF0C2206A90448FFF749FB18B13E
:102B70006E210448FFF7FCFE0AB010BD2C010020B6
:102B8000002C0140812D00087FB5472317481849C4
:102B90004FF47A7280E80A000023C2608360036108
:102BA0008361FFF7CFFA18B180211248FFF7E0FEEA
:102BB0004FF4805306A941F8103D0C48FFF72CF95B
:102BC00018B186210B48FFF7D3FE20220023694667
:102BD00006488DE80C00FFF7D3FB18B18D2105489E
:102BE000FFF7C6FE07B05DF804FB00BFEC00002055
:102BF00000040040812D000810B50368264A86B005
:102C0000934235D1254B00249A6902A942F400620F
:102C10009A619B69224803F400630193019B4FF47E
:102C20007063039402930494FEF71AFD2246214632
:102C30001820FEF7A7FB1820FEF7D8FB22462146F6
:102C40001920FEF79FFB1920FEF7D0FB22462146F4
:102C50001A20FEF797FB1A20FEF7C8FB1B2022461E
:102C60002146FEF78FFB1B20FEF7C0FB06B010BD10
:102C70000C4A9342FAD1094B1D20DA6942F0020254
:102C8000DA610022DB69114603F002030293029B22
:102C9000FEF778FB1D20E7E7002C01400010024002
:102CA0000008014000040040002103E00B4B5B588A
:102CB000435004310A480B4B42189A42F6D30A4A51
:102CC00002E0002342F8043B084B9A42F9D3FFF795
:102CD000C9FE00F00FF8FFF71FFD7047982D0008A0
:102CE0000000002010000020100000206C010020D7
:102CF000FEE7000070B500250C4E0D4CA41BA4107F
:102D0000A54209D100F01AF800250A4E0A4CA41B6E
:102D1000A410A54205D170BD56F82530984701355D
:102D2000EEE756F8253098470135F2E7902D000878
:102D3000902D0008902D0008942D0008F8B500BFD4
:102D4000F8BC08BC9E467047F8B500BFF8BC08BC8C
:042D50009E467047E4
:102D540002030405060708090A0B0C0D0E0F1010D8
:102D64002E2E5C5372635C6164632E63000000006A
:102D7400000000000001020304060708092E2E5C6F
:0C2D84005372635C74696D2E63000000E4
:042D90003501000801
:042D94001101000821
:102D980001000000100000000100000000A24A0429
:0400000508002CA91A
:00000001FF
