:020000040800F2
:10000000D004002001010008171500089B13000808
:100010001515000879020008E3160008000000002A
:100020000000000000000000000000003B15000878
:10003000B302000800000000391500083D15000853
:100040001B0100081B0100081B0100081B01000820
:100050001B0100081B0100081B0100081B01000810
:100060001B0100081B0100081B0100087D0200089D
:100070001B0100081B0100081B0100081B010008F0
:100080001B0100081B0100081B0100081B010008E0
:100090001B0100081B0100081B0100081B010008D0
:1000A0001B0100081B0100081B0100081B010008C0
:1000B0001B0100081B0100081B0100081B010008B0
:1000C0001B0100081B0100081B0100081B010008A0
:1000D0001B0100081B0100081B0100081B01000890
:1000E0001B0100081B0100081B010008DFF80CD0F1
:1000F00000F018F80048004705170008D004002059
:100100000648804706480047FEE7FEE7FEE7FEE7B1
:10011000FEE7FEE7FEE7FEE7FEE7FEE7C51500089F
:10012000ED000008064C074D06E0E06840F00103D2
:1001300094E8070098471034AC42F6D3FFF7DAFF93
:100140004C1700086C17000870B5044600688168F9
:10015000C943C9071CD1816821F00101816000F009
:1001600077FC05460FE000BF00F072FC401B022840
:1001700009D9A06A40F01000A062E06A40F00100D6
:10018000E062012070BD20688068C043C007EBD0EA
:10019000002070BD10B50146406A826A12F0500F0F
:1001A00005D0006A026BBDE8104008461047816A1E
:1001B00041F40071816201688968C1F342410729F5
:1001C0000CD1C16851B9816A21F480718162816A60
:1001D000C90403D4816A41F00101816200F0E8F8AA
:1001E00010BD10B5406A816A41F040018162C16A68
:1001F00041F00401C16200F0DDF810BD10B5406AA5
:1002000000F0D7F810BD0000F8B5002604460096AF
:1002100000688168C943C90728D0816841F001019D
:100220008160134813490068B0FBF1F000E0401E04
:1002300000900028FBD100F00BFC054611E000BF48
:1002400000F006FC401B02280BD9A06A40F0100009
:10025000A062E06A40F00100E06284F824600120BE
:10026000F8BD20688068C043C007E9D10020F8BD10
:100270001400002040420F00FEE70000014800F09B
:10028000F5B900004800002030B590F84050012436
:10029000AC40C56B6C60046863604368102B0368F6
:1002A00003D099600068C26030BD9A600068C16088
:1002B00030BD7047F8B50024009490F824202546FE
:1002C000012A12D0012280F824204A681F23072A1D
:1002D0000DD20668776B521E02EB820293409F4359
:1002E0000B6893401F43776319E00220F8BD06684E
:1002F0000D2A0AD2376BD21F02EB820293409F4332
:100300000B6893401F43376309E0F76A0D3A02EB2D
:10031000820293409F430B6893401F43F7620A6831
:10032000072306680A2A0AD3F7680A3A02EB420250
:1003300093409F438B6893401F43F76008E0376901
:1003400002EB420293409F438B6893401F43376107
:100350000A68102A01D0112A20D1124B02689A4251
:1003600017D193681B0219D4936843F40003936078
:100370000968102912D10C490C4A0968B1FBF2F145
:1003800001EB8101490000E0491E00910029FBD1E9
:1003900004E0816A41F020018162012480F8245048
:1003A0002046F8BD002401401400002040420F0008
:1003B00070477047704700002DE9F0414FF000078B
:1003C00004003D467ED0A06A002628B9E66284F883
:1003D0002460204600F07EF82046FFF7B5FEA16AB3
:1003E000C90600D420B1A06A40F01000A06269E004
:1003F000A16A21F4885141F00201A1626268E169B9
:10040000E3680A4347EA43010A43A1684FF480774F
:10041000B94209D0012907D05FF00001D4F814C017
:10042000BCF1010F02D00AE03946F7E7F3B1A36A45
:1004300043F02003A362E36A43F00103E36223680D
:10044000D3F804C02CF4694C4CEA010CC3F804C086
:1004500021688B68DFF870C003EA0C0313438B60DC
:10046000A168B9420BD0012909D00CE0DFF85CC0CB
:10047000A3690CEB43330B4343F40061DFE7218AAC
:100480000D05A5F580152168CB6A23F470032B4375
:10049000CB62216889680E4B1940914208D1E6620F
:1004A000A16A21F0020141F00101A162BDE8F081E1
:1004B000A06A20F0020040F01000A062E06A40F064
:1004C0000100E0620120F1E7FDF7E1FF00E0FFFF3E
:1004D000FE0E1FFF30B505460068184985B08842FA
:1004E0002AD11748816941F40071816180696946A8
:1004F00000F4007004900F20009003200190114838
:1005000000F0C8F9114C1048206000206060A06025
:100510008020E06040002061800060612020A061B8
:10052000C001E061204600F04BF918B1922108A00B
:1005300001F0D8F82C62656205B030BD002401409E
:10054000001002400008014008000240480000205E
:100550002E2E2F5372632F6164632E630000000000
:100560002DE9F047894604463B4900683B4F0E1D84
:100570009046884201D0B84207D1306810F4702FFD
:1005800003D001252846BDE8F08794F8240001280F
:100590000CD0012084F824002046FFF735FE05002A
:1005A0004FF0000004D084F82400EBE70220EAE7D3
:1005B000A16A40F60162914341F48071A162216811
:1005C000B94218D1326812F4702F14D0A16A41F4E4
:1005D0008011A1623168490505D5A16A21F4005155
:1005E00041F48051A162A16AC9040AD5E16A21F0EF
:1005F0000601E16206E0A26A22F48012A262496862
:10060000E9E7E06284F82400216A15488862216ADB
:100610001448C862216A1448086321686FF0020018
:1006200008602068816841F48071816021684346D8
:100630004A464C31206A00F0F5F820688168C1F321
:1006400042410729816803D041F48011816099E714
:1006500041F4A001FAE70000002401400028014015
:1006600095010008FD010008E30100082DE9F05F95
:10067000C16B0C6801680B68D0F840C0042202FA14
:100680000CF2494DDFF824A1494E4A4FDFF828B15A
:10069000DFF828E122422CD05A072AD50A689206B0
:1006A00003D40A6822F004020A600168A94201D159
:1006B000042219E0514501D1402215E0B14202D196
:1006C0004FF4806210E0B94202D14FF480420BE057
:1006D000594502D14FF4802206E0714502D14FF412
:1006E000800201E04FF080622F4908394A60C16AF8
:1006F0003BE04FF0020808FA0CF818EA040F4FF03C
:1007000000094FF0010235D05FEA837832D50B68DB
:100710009B0605D40B6823F00A030B6080F82120A8
:100720000168A94201D1022219E0514501D12022DC
:1007300015E0B14202D14FF4007210E0B94202D18B
:100740004FF400520BE0594502D14FF4003206E05D
:10075000714502D14FF4001201E04FF000721249CE
:1007600008394A6080F82090816A00291AD0BDE8D3
:10077000F05F0847082505FA0CF5254212D01B0743
:1007800010D50B6823F00E030B6090F84010C36B7C
:1007900002FA01F15960826380F8212080F82090EC
:1007A000016BE2E7BDE8F09F080002401C00024038
:1007B0003000024044000240580002406C000240F9
:1007C00030B548B308C8154914221944B1FBF2F1F9
:1007D0008900C16312498163022141771A6843F697
:1007E000F0718A43D0E900142143D0E902452C433B
:1007F000214304692143446921438469214311430E
:100800001960002141628162C1620163416301227A
:1008100042770177084630BD012030BDF8FFFDBFAB
:100820000000024070B5044690F820000025012821
:100830000CD0012084F8200094F821600020012EC3
:1008400006D084F820000225284670BD022070BD25
:10085000022684F82160A0632068066826F001065D
:1008600006602046FFF710FDE06A00282068016856
:1008700002D041F00E0106E021F004010160206881
:10088000016841F00A0101602068016841F001013E
:100890000160D9E72DE9F84FDFF890A100220AF1B5
:1008A000040B144601274FF00F090BF1040E00BF93
:1008B0000B6807FA04F52B40AB4274D1DFF870C126
:1008C0004E68A6EB0C0866452BD00DDC032E34D009
:1008D00005DC36B3012E19D0022E2FD11BE0112ECC
:1008E00016D0122E2AD119E0B8F5881F19D006DCCF
:1008F000B8F5803F15D0B8F5801F1FD111E0B8F5CD
:10090000001F0ED0B8F5041F18D10AE0CA6815E020
:10091000CA68121D12E0CA6808320FE0CA680C32B9
:100920000CE08A682AB1012A4FF0080203D0456121
:1009300004E0042202E0056100E00022FF2B01D860
:10094000064601E000F104064FEA840501D9A5F14D
:100950002005D6F800C009FA05F82CEA080C02FABE
:1009600005F54CEA050CC6F800C04D68ED0057D5FA
:10097000304DAE6946F00106AE61AD6924F0030664
:1009800005F0010500952C4D06EB050CDCF8085030
:10099000A6074FEA167809FA08F6B543274EB04283
:1009A00002D1002610E03BE0254EB04201D10126E5
:1009B0000AE0244EB04201D1022605E0224EB042A8
:1009C00001D1032600E0042606FA08F62E43CCF8EF
:1009D00008604D68DAF80060ED03554601D51E4306
:1009E00000E09E432E604D68DBF80060AD035D467D
:1009F00001D51E4300E09E432E604D68DEF8006086
:100A0000ED02754601D51E4300E09E432E604D6801
:100A1000AD020E4D2E6801D51E4300E09E432E60B0
:100A2000641C102CFFF444AFBDE8F88F00040140B3
:100A300000001110001002400000014000080140B9
:100A4000000C014000100140001401400C04014062
:100A50000148806870470000080000200248816853
:100A6000027811448160704708000020074810B5E3
:100A7000016841F010010160032000F09DF80020A2
:100A800000F006F800F024F8002010BD002002401D
:100A900070B50D4D04464FF47A712878B1FBF0F033
:100AA0000A490968B1FBF0F000F083FB48B9102C4B
:100AB00007D200222146501E00F05EF800206C6034
:100AC00070BD012070BD000008000020140000204F
:100AD000214808B5816941F001018161816901F016
:100AE00001010091C16941F08051C161C06900F00C
:100AF00080500090032000F05FF8002211466FF054
:100B00000B0000F039F8002211466FF00A0000F0E7
:100B100033F8002211466FF0090000F02DF8002292
:100B20001146501F00F028F800221146101F00F057
:100B300023F800221146901E00F01EF800221146F4
:100B4000501E00F019F80548416821F0E06141F0BD
:100B50000071416008BD000000100240000001402B
:100B600000F01F02012191404009800000F1E020C7
:100B7000C0F8001170470000F0B40E4B1B680C4623
:100B8000C3F30223C3F10705042D00D90425191D61
:100B9000072901D2002300E0DB1E012606FA05F139
:100BA000491E214099409E40761E16403143F0BCBC
:100BB00000F0B2BC0CED00E0064900F00702086846
:100BC0004FF6FF03184040EA0220034A1043086032
:100BD000704700000CED00E00000FA052DE9F84335
:100BE00005460078354CC00754D0E0690026C000A7
:100BF00008D4E06940F08050E061E069012600F02F
:100C0000805000902E480168C90512D401688046C2
:100C100041F480710160FFF71BFF074605E000BF4C
:100C2000FFF716FFC01B642823D8D8F80000C005C2
:100C3000F6D5206A10F4407021D0A98801F44071E3
:100C400081421CD0206A1F49012220F440700A60B2
:100C500000220A602062C00711D0FFF7F9FE0746A4
:100C600041F2883808E000BFFFF7F2FEC11B4145A2
:100C700002D90320BDE8F883206A8007F4D5206AF2
:100C8000696820F44070084320621EB1E06920F0DA
:100C90008050E0612878800705D56068A96820F455
:100CA0004040084360602878C00605D56068E96860
:100CB00020F48000084360600020DBE70010024061
:100CC00000700040400442422DE9F047DFF83C81CB
:100CD00005460E46D8F8000000F00700B0420CD2DE
:100CE000D8F8001021F007013143C8F80010D8F8F7
:100CF000000000F00700B04263D12878444C800720
:100D000005D56068A96820F0F00008436060287885
:100D1000C00745D06868012816D02168022816D07F
:100D2000890700294DDA616821F003010143616000
:100D3000FFF78EFE6968074641F2883001290FD01F
:100D40000229814619D027E021688903E9E7890152
:100D5000E7E700BFFFF77CFEC11B494501D918E05A
:100D600081466068C0F381000128F3D118E000BF1C
:100D7000FFF76EFEC11B49450BD86068C0F38100C8
:100D80000228F5D10CE000BFFFF762FEC11B494508
:100D900002D90320BDE8F087606810F00C0FF3D192
:100DA000D8F80010404601F00701B1420BD90168A4
:100DB00021F0070131430160006800F00700B042F4
:100DC00001D00120E6E72878400705D56068E9688A
:100DD00020F4E060084360602878000706D560686A
:100DE000296920F4605040EAC100606000F01CF8FE
:100DF0006168084AC1F30311515CC84006490860A4
:100E00000020FFF745FE0020C4E70000002002405C
:100E1000001002403C170008140000200148006840
:100E2000704700001400002012A185B00FC98DE8A2
:100E30000F0014A0144A006804905168134801F090
:100E40000C03042B10D0082B0ED1C1F38343C9032C
:100E50001DF803000AD5516804AAC1F34041515C52
:100E60000A4A5043B0FBF1F005B0704708494843C7
:100E7000FAE7000002030405060708090A0B0C0D37
:100E80000E0F1010010200000010024000127A0044
:100E900000093D002DE9F84F04460078B94DC00720
:100EA00048D06868C0F38100012807D06868C0F3A3
:100EB0008100022809D16868C00306D5286880032C
:100EC00038D5606800286FD034E06068B0F5803FA6
:100ED0000BD010B1B0F5A02F11D0286820F48030CD
:100EE0002860286820F4802002E0286840F48030E0
:100EF0002860606888B1FFF7ABFD064609E0286806
:100F000040F480202860F0E7FFF7A2FD801B6428F2
:100F100075D828688003F7D50CE0FFF799FD0646E1
:100F200005E000BFFFF794FD801B6428F0D8286817
:100F30008003F7D42078944E80074FF001094FF0DA
:100F400000083BD5686810F00C0F07D06868C0F344
:100F50008100022809D16868C00306D42868800788
:100F600014D5206901281FD110E02069B0B1C6F85E
:100F70000090FFF76DFD074605E000BFFFF768FD35
:100F8000C01B0228C4D828688007F7D52868616983
:100F900020F0F80040EAC10028600FE0C6F80080A9
:100FA000FFF756FD074606E0E9E000BFFFF750FDFA
:100FB000C01B022823D828688007F7D420780007B0
:100FC0002CD57248A169D9B1C0F80090FFF740FD57
:100FD000074604E0FFF73CFDC01B02280FD8686AF3
:100FE0008007F7D56A484FF4FA510068B0FBF1F07A
:100FF000009000BF0098411E0091FAD20EE080E000
:10100000C0F80080FFF724FD074604E0FFF720FD4D
:10101000C01B022875D8686A8007F7D4207840077B
:1010200060D5E8690027C00008D4E86940F0805026
:10103000E861E869012700F0805000905548016898
:10104000C90513D40168834641F480710160FFF73C
:10105000FFFC824606E000BFFFF7FAFCA0EB0A00A7
:1010600064284ED8DBF80000C005F5D5E0680128FB
:101070000AD008B1052813D0286A20F001002862A0
:10108000286A20F0040002E0286A40F0010028628B
:10109000E06841F2883B98B1FFF7DAFC82460BE04A
:1010A000286A40F004002862EEE700BFFFF7D0FC9A
:1010B000A0EB0A0159455AD8286A8007F6D50CE0FA
:1010C000FFF7C6FC824605E0FFF7C2FCA0EB0A0171
:1010D00059454CD8286A8007F6D41FB1E86920F03A
:1010E0008050E861E06988B36968C1F38101022931
:1010F00045D00228C6F8608004D0FFF7A9FC04465A
:1011000038E034E0FFF7A4FC074604E0FFF7A0FC5A
:10111000C01B02282BD828688001F7D4206AB0F5BC
:10112000803F05D16868A16820F4003008436860FA
:10113000D4E908010843696821F474110843686020
:10114000C6F86090FFF784FC044606E015E000BF97
:10115000FFF77EFC001B022809D828688001F7D51C
:101160000BE000BFFFF774FC001B022802D903202C
:10117000BDE8F88F28688001F4D40020F8E701204A
:10118000F6E70000001002400000424280044242A4
:1011900014000020007000404FF0E021042808698E
:1011A00003D020F004000861704740F00400FAE723
:1011B000704710B5401EB0F1807F01D3012010BDF3
:1011C0004FF0E02460610F21601700F0A5F90020C6
:1011D000A06107202061002010BD10B5FFF7E8FFD7
:1011E00010BD30B590F83C20012A20D0012280F8B3
:1011F0003C20022380F83D3003685C6824F07004D2
:101200005C6003685C680D682C435C6003689C68E4
:1012100024F080049C6003689C6849680C439C60CF
:1012200080F83D20002180F83C10084630BD0220A7
:1012300030BD10B5040003D094F83D0010B107E0B4
:10124000012010BD002084F83C00204600F00CF87E
:10125000022084F83D00211D206800F0D7F901200C
:1012600084F83D00002010BD08B50068064988429A
:1012700008D10648C16941F00201C161C06900F0AE
:101280000200009008BD0000000400400010024071
:101290000168CA6842F00102CA600068016841F052
:1012A000010101600020704770B5044690F83C00D1
:1012B000012817D0012584F83C50022084F83D0015
:1012C0002068826822F0770222F47F4282600868F8
:1012D000502837D00DDC202859D005DC88B31028E1
:1012E00041D151E0022070BD302853D040283AD17E
:1012F0003FE060282ED070280BD0B0F5805F03D07F
:10130000B0F5005F2FD110E02068816821F007015F
:1013100015E0CB68D1E90121206800F0ADF9216822
:10132000886840F0770088601DE0CB68D1E9012132
:10133000206800F0A1F92068816841F48041816053
:1013400011E01EE0CA684968206800F0A7F9502142
:10135000206806E0CA684968206800F0B0F960219A
:10136000206800F093F984F83D50002084F83C0098
:1013700070BDCA684968206800F090F94021206873
:10138000EFE700212068ECE710212068E9E7202141
:101390002068E6E730212068E3E7FEE7FEB5244851
:1013A0002249002401608915C0E902144461042522
:1013B0000561C9024460C161FEF7FEFF18B1452115
:1013C0001CA000F08FF90126CDE9004669461848B7
:1013D0000294FEF76FFF18B14F2116A000F082F9BA
:1013E0000224CDE9006469461148FEF763FF18B195
:1013F000582110A000F076F90094032469460C48A7
:101400000194FEF757FF18B161210AA000F06AF9B4
:1014100069460748CDE90045FEF74CFF002803D098
:101420006A2104A000F05EF9FEBD00000024014026
:10143000180000202E2E2F5372632F6164632E63D9
:1014400000000000094808B5416941F0010141610F
:101450004069002200F00100009011460B20FFF7C8
:101460008BFBBDE808400B20FFF77ABB0010024061
:10147000094808B5816941F020018161816901F065
:1014800020010091816941F004018161806900F0CF
:101490000400009008BD00000010024010B518487C
:1014A00086B01649016047210024C0E901144FF4B9
:1014B0007A71C0E903148461FFF7BBFE18B13F21C4
:1014C00010A000F00FF94FF48050009069460C48CE
:1014D000FFF7EAFE18B145210AA000F003F9202029
:1014E000CDE9040404A90648FFF77BFE002803D0D9
:1014F0004C2104A000F0F6F806B010BD0004004036
:101500008C0000202E2E2F5372632F74696D2E6372
:1015100000000000FEE770470907090E002806DA00
:1015200000F00F0000F1E02080F8141D704700F17A
:10153000E02080F8001470477047704710B5FFF73F
:101540008DFABDE81040FFF748BE30B593B00121D9
:101550000804CDE900100025029502240491CDE98C
:1015600007404FF4E01009906846FFF793FC00B184
:10157000FEE70AA90F2081E831004FF48060CDE931
:101580000D0502210AA8FFF79FFB00B1FEE74FF40B
:10159000004011900F940FA8FFF720FB00B1FEE769
:1015A000FFF73CFC4FF47A71B0FBF1F0FFF701FE5E
:1015B0000420FFF7F1FD00221146501EFFF7DCFA70
:1015C00013B030BD0D48016841F001010160416870
:1015D0000B4A1140416001680A4A114001600168EC
:1015E00021F480210160416821F4FE0141604FF443
:1015F0001F0181600449C003086070470010024069
:101600000000FFF8FFFFF6FE08ED00E0F0B502680D
:10161000164B174C174D4FF08047984205D0B842F3
:1016200003D0A04201D0A84203D122F070064A683C
:101630003243984205D0B84203D0A04201D0A8421C
:1016400003D122F44074CA68224322F080044A691C
:10165000224302608A68C2620A688262984201D1AB
:101660000969016301214161F0BD0000002C0140C6
:10167000000400400008004010B5846842EA0322DC
:1016800024F47F440A432243826010BD826822F022
:1016900070020A4342F007018160704710B5036A87
:1016A000046A24F001040462846924F0F00444EA2A
:1016B000021423F00A020A438461026210BD10B5CD
:1016C000036A23F0100303628369046A23F47043FE
:1016D00043EA023224F0A00343EA0111826101626D
:1016E00010BDFEE7FEE702E008C8121F08C1002A8D
:1016F000FAD170477047002001E001C1121F002A93
:10170000FBD17047FFF7B2F9FFF71FFFFFF7B0FEFD
:10171000FFF798FEFFF7C2FEFFF740FE0448FFF711
:10172000B7FD042203490448FEF71AFFFEE7000054
:101730008C000020000000201800002000000000A5
:101740000000000001020304060708096C170008E6
:101750000000002018000000E616000884170008AA
:1017600018000020B8040000F61600080000000071
:101770000000000001000000100000000000000058
:0417800000A24A0475
:04000005080000ED02
:00000001FF
